{
  "_format": "hh3-artifact-1",
  "contractName": "MedicineRegistry",
  "sourceName": "contracts/MedicineRegistry.sol",
  "abi": [
    {
      "anonymous": false,
      "inputs": [
        {
          "indexed": true,
          "internalType": "bytes32",
          "name": "loteId",
          "type": "bytes32"
        },
        {
          "indexed": false,
          "internalType": "string",
          "name": "nombre",
          "type": "string"
        },
        {
          "indexed": false,
          "internalType": "string",
          "name": "fabricante",
          "type": "string"
        },
        {
          "indexed": false,
          "internalType": "uint256",
          "name": "fechaFabricacion",
          "type": "uint256"
        },
        {
          "indexed": false,
          "internalType": "uint256",
          "name": "fechaCaducidad",
          "type": "uint256"
        },
        {
          "indexed": true,
          "internalType": "address",
          "name": "propietario",
          "type": "address"
        },
        {
          "indexed": false,
          "internalType": "uint256",
          "name": "fechaRegistro",
          "type": "uint256"
        }
      ],
      "name": "RegistroLote",
      "type": "event"
    },
    {
      "anonymous": false,
      "inputs": [
        {
          "indexed": true,
          "internalType": "bytes32",
          "name": "loteId",
          "type": "bytes32"
        },
        {
          "indexed": true,
          "internalType": "address",
          "name": "propietarioAnterior",
          "type": "address"
        },
        {
          "indexed": true,
          "internalType": "address",
          "name": "nuevoPropietario",
          "type": "address"
        },
        {
          "indexed": false,
          "internalType": "uint256",
          "name": "fechaTransferencia",
          "type": "uint256"
        }
      ],
      "name": "TransferenciaLote",
      "type": "event"
    },
    {
      "inputs": [
        {
          "internalType": "bytes32",
          "name": "loteId",
          "type": "bytes32"
        }
      ],
      "name": "obtenerLote",
      "outputs": [
        {
          "internalType": "string",
          "name": "nombre",
          "type": "string"
        },
        {
          "internalType": "string",
          "name": "fabricante",
          "type": "string"
        },
        {
          "internalType": "uint256",
          "name": "fechaFabricacion",
          "type": "uint256"
        },
        {
          "internalType": "uint256",
          "name": "fechaCaducidad",
          "type": "uint256"
        },
        {
          "internalType": "address",
          "name": "propietario",
          "type": "address"
        },
        {
          "internalType": "uint256",
          "name": "fechaRegistro",
          "type": "uint256"
        },
        {
          "internalType": "uint256",
          "name": "fechaTransferencia",
          "type": "uint256"
        },
        {
          "internalType": "bool",
          "name": "existe",
          "type": "bool"
        }
      ],
      "stateMutability": "view",
      "type": "function"
    },
    {
      "inputs": [
        {
          "internalType": "string",
          "name": "nombre",
          "type": "string"
        },
        {
          "internalType": "string",
          "name": "fabricante",
          "type": "string"
        },
        {
          "internalType": "uint256",
          "name": "fechaFabricacion",
          "type": "uint256"
        },
        {
          "internalType": "uint256",
          "name": "fechaCaducidad",
          "type": "uint256"
        },
        {
          "internalType": "string",
          "name": "serial",
          "type": "string"
        }
      ],
      "name": "registrarLote",
      "outputs": [
        {
          "internalType": "bytes32",
          "name": "",
          "type": "bytes32"
        }
      ],
      "stateMutability": "nonpayable",
      "type": "function"
    },
    {
      "inputs": [
        {
          "internalType": "bytes32",
          "name": "loteId",
          "type": "bytes32"
        },
        {
          "internalType": "address",
          "name": "nuevoPropietario",
          "type": "address"
        }
      ],
      "name": "transferirLote",
      "outputs": [],
      "stateMutability": "nonpayable",
      "type": "function"
    }
  ],
  "bytecode": "0x6080604052348015600e575f5ffd5b506112a38061001c5f395ff3fe608060405234801561000f575f5ffd5b506004361061003f575f3560e01c80637bdeec591461004357806397b9cf5014610073578063eb864c7d146100aa575b5f5ffd5b61005d600480360381019061005891906108d7565b6100c6565b60405161006a91906109c6565b60405180910390f35b61008d60048036038101906100889190610a09565b6103a3565b6040516100a1989796959493929190610b0c565b60405180910390f35b6100c460048036038101906100bf9190610bc0565b6105c4565b005b5f848411610109576040517f08c379a000000000000000000000000000000000000000000000000000000000815260040161010090610c6e565b60405180910390fd5b5f838360405160200161011d929190610cc8565b6040516020818303038152906040528051906020012090505f5f8281526020019081526020015f206007015f9054906101000a900460ff1615610195576040517f08c379a000000000000000000000000000000000000000000000000000000000815260040161018c90610d2a565b60405180910390fd5b6040518061010001604052808b8b8080601f0160208091040260200160405190810160405280939291908181526020018383808284375f81840152601f19601f82011690508083019250505050505050815260200189898080601f0160208091040260200160405190810160405280939291908181526020018383808284375f81840152601f19601f8201169050808301925050505050505081526020018781526020018681526020013373ffffffffffffffffffffffffffffffffffffffff1681526020014281526020015f8152602001600115158152505f5f8381526020019081526020015f205f820151815f0190816102919190610f72565b5060208201518160010190816102a79190610f72565b5060408201518160020155606082015181600301556080820151816004015f6101000a81548173ffffffffffffffffffffffffffffffffffffffff021916908373ffffffffffffffffffffffffffffffffffffffff16021790555060a0820151816005015560c0820151816006015560e0820151816007015f6101000a81548160ff0219169083151502179055509050503373ffffffffffffffffffffffffffffffffffffffff16817fba00dbcb824861b4acac58c701e370cf94215dcb6b7cd4c9619e2953b5c9d43b8c8c8c8c8c8c4260405161038b979695949392919061106d565b60405180910390a38091505098975050505050505050565b6060805f5f5f5f5f5f5f5f5f8b81526020019081526020015f20604051806101000160405290815f820180546103d890610da2565b80601f016020809104026020016040519081016040528092919081815260200182805461040490610da2565b801561044f5780601f106104265761010080835404028352916020019161044f565b820191905f5260205f20905b81548152906001019060200180831161043257829003601f168201915b5050505050815260200160018201805461046890610da2565b80601f016020809104026020016040519081016040528092919081815260200182805461049490610da2565b80156104df5780601f106104b6576101008083540402835291602001916104df565b820191905f5260205f20905b8154815290600101906020018083116104c257829003601f168201915b505050505081526020016002820154815260200160038201548152602001600482015f9054906101000a900473ffffffffffffffffffffffffffffffffffffffff1673ffffffffffffffffffffffffffffffffffffffff1673ffffffffffffffffffffffffffffffffffffffff1681526020016005820154815260200160068201548152602001600782015f9054906101000a900460ff1615151515815250509050805f015181602001518260400151836060015184608001518560a001518660c001518760e001519850985098509850985098509850985050919395975091939597565b5f5f8381526020019081526020015f206007015f9054906101000a900460ff16610623576040517f08c379a000000000000000000000000000000000000000000000000000000000815260040161061a9061111a565b60405180910390fd5b3373ffffffffffffffffffffffffffffffffffffffff165f5f8481526020019081526020015f206004015f9054906101000a900473ffffffffffffffffffffffffffffffffffffffff1673ffffffffffffffffffffffffffffffffffffffff16146106c3576040517f08c379a00000000000000000000000000000000000000000000000000000000081526004016106ba906111a8565b60405180910390fd5b5f73ffffffffffffffffffffffffffffffffffffffff168173ffffffffffffffffffffffffffffffffffffffff1603610731576040517f08c379a000000000000000000000000000000000000000000000000000000000815260040161072890611236565b60405180910390fd5b5f5f5f8481526020019081526020015f206004015f9054906101000a900473ffffffffffffffffffffffffffffffffffffffff169050815f5f8581526020019081526020015f206004015f6101000a81548173ffffffffffffffffffffffffffffffffffffffff021916908373ffffffffffffffffffffffffffffffffffffffff160217905550425f5f8581526020019081526020015f20600601819055508173ffffffffffffffffffffffffffffffffffffffff168173ffffffffffffffffffffffffffffffffffffffff16847faa9b6f11aafadbfc9d79e7ef94a364a366d18dfd8dca294ecf0b99f2dd4663d34260405161082e9190611254565b60405180910390a4505050565b5f5ffd5b5f5ffd5b5f5ffd5b5f5ffd5b5f5ffd5b5f5f83601f84011261086457610863610843565b5b8235905067ffffffffffffffff81111561088157610880610847565b5b60208301915083600182028301111561089d5761089c61084b565b5b9250929050565b5f819050919050565b6108b6816108a4565b81146108c0575f5ffd5b50565b5f813590506108d1816108ad565b92915050565b5f5f5f5f5f5f5f5f60a0898b0312156108f3576108f261083b565b5b5f89013567ffffffffffffffff8111156109105761090f61083f565b5b61091c8b828c0161084f565b9850985050602089013567ffffffffffffffff81111561093f5761093e61083f565b5b61094b8b828c0161084f565b9650965050604061095e8b828c016108c3565b945050606061096f8b828c016108c3565b935050608089013567ffffffffffffffff8111156109905761098f61083f565b5b61099c8b828c0161084f565b92509250509295985092959890939650565b5f819050919050565b6109c0816109ae565b82525050565b5f6020820190506109d95f8301846109b7565b92915050565b6109e8816109ae565b81146109f2575f5ffd5b50565b5f81359050610a03816109df565b92915050565b5f60208284031215610a1e57610a1d61083b565b5b5f610a2b848285016109f5565b91505092915050565b5f81519050919050565b5f82825260208201905092915050565b8281835e5f83830152505050565b5f601f19601f8301169050919050565b5f610a7682610a34565b610a808185610a3e565b9350610a90818560208601610a4e565b610a9981610a5c565b840191505092915050565b610aad816108a4565b82525050565b5f73ffffffffffffffffffffffffffffffffffffffff82169050919050565b5f610adc82610ab3565b9050919050565b610aec81610ad2565b82525050565b5f8115159050919050565b610b0681610af2565b82525050565b5f610100820190508181035f830152610b25818b610a6c565b90508181036020830152610b39818a610a6c565b9050610b486040830189610aa4565b610b556060830188610aa4565b610b626080830187610ae3565b610b6f60a0830186610aa4565b610b7c60c0830185610aa4565b610b8960e0830184610afd565b9998505050505050505050565b610b9f81610ad2565b8114610ba9575f5ffd5b50565b5f81359050610bba81610b96565b92915050565b5f5f60408385031215610bd657610bd561083b565b5b5f610be3858286016109f5565b9250506020610bf485828601610bac565b9150509250929050565b7f4c612066656368612064652063616475636964616420646562652073657220705f8201527f6f73746572696f722061206c61206465206661627269636163696f6e00000000602082015250565b5f610c58603c83610a3e565b9150610c6382610bfe565b604082019050919050565b5f6020820190508181035f830152610c8581610c4c565b9050919050565b5f81905092915050565b828183375f83830152505050565b5f610caf8385610c8c565b9350610cbc838584610c96565b82840190509392505050565b5f610cd4828486610ca4565b91508190509392505050565b7f456c206c6f746520636f6e2065737465204944207961206578697374650000005f82015250565b5f610d14601d83610a3e565b9150610d1f82610ce0565b602082019050919050565b5f6020820190508181035f830152610d4181610d08565b9050919050565b7f4e487b71000000000000000000000000000000000000000000000000000000005f52604160045260245ffd5b7f4e487b71000000000000000000000000000000000000000000000000000000005f52602260045260245ffd5b5f6002820490506001821680610db957607f821691505b602082108103610dcc57610dcb610d75565b5b50919050565b5f819050815f5260205f209050919050565b5f6020601f8301049050919050565b5f82821b905092915050565b5f60088302610e2e7fffffffffffffffffffffffffffffffffffffffffffffffffffffffffffffffff82610df3565b610e388683610df3565b95508019841693508086168417925050509392505050565b5f819050919050565b5f610e73610e6e610e69846108a4565b610e50565b6108a4565b9050919050565b5f819050919050565b610e8c83610e59565b610ea0610e9882610e7a565b848454610dff565b825550505050565b5f5f905090565b610eb7610ea8565b610ec2818484610e83565b505050565b5b81811015610ee557610eda5f82610eaf565b600181019050610ec8565b5050565b601f821115610f2a57610efb81610dd2565b610f0484610de4565b81016020851015610f13578190505b610f27610f1f85610de4565b830182610ec7565b50505b505050565b5f82821c905092915050565b5f610f4a5f1984600802610f2f565b1980831691505092915050565b5f610f628383610f3b565b9150826002028217905092915050565b610f7b82610a34565b67ffffffffffffffff811115610f9457610f93610d48565b5b610f9e8254610da2565b610fa9828285610ee9565b5f60209050601f831160018114610fda575f8415610fc8578287015190505b610fd28582610f57565b865550611039565b601f198416610fe886610dd2565b5f5b8281101561100f57848901518255600182019150602085019450602081019050610fea565b8683101561102c5784890151611028601f891682610f3b565b8355505b6001600288020188555050505b505050505050565b5f61104c8385610a3e565b9350611059838584610c96565b61106283610a5c565b840190509392505050565b5f60a0820190508181035f83015261108681898b611041565b9050818103602083015261109b818789611041565b90506110aa6040830186610aa4565b6110b76060830185610aa4565b6110c46080830184610aa4565b98975050505050505050565b7f456c206c6f746520636f6e2065737465204944206e6f206578697374650000005f82015250565b5f611104601d83610a3e565b915061110f826110d0565b602082019050919050565b5f6020820190508181035f830152611131816110f8565b9050919050565b7f536f6c6f20656c2070726f706965746172696f2061637475616c2070756564655f8201527f207472616e73666572697220656c206c6f746500000000000000000000000000602082015250565b5f611192603383610a3e565b915061119d82611138565b604082019050919050565b5f6020820190508181035f8301526111bf81611186565b9050919050565b7f456c206e7565766f2070726f706965746172696f206e6f2070756564652073655f8201527f72206c6120646972656363696f6e206365726f00000000000000000000000000602082015250565b5f611220603383610a3e565b915061122b826111c6565b604082019050919050565b5f6020820190508181035f83015261124d81611214565b9050919050565b5f6020820190506112675f830184610aa4565b9291505056fea2646970667358221220dc838e0518aad8071793eadd9c7373e9052d9791e74a2a0f9b34175b7a3c271e64736f6c634300081c0033",
  "linkReferences": {},
  "deployedLinkReferences": {},
  "immutableReferences": {},
  "inputSourceName": "project/contracts/MedicineRegistry.sol",
  "buildInfoId": "solc-0_8_28-2a0a02b8efbcf7acde91f2dd31aecec06bd766b1"
}