{
  "_format": "hh3-artifact-1",
  "contractName": "MedicineRegistry",
  "sourceName": "contracts/MedicineRegistry.sol",
  "abi": [
    {
      "anonymous": false,
      "inputs": [
        {
          "indexed": true,
          "internalType": "bytes32",
          "name": "loteId",
          "type": "bytes32"
        },
        {
          "indexed": false,
          "internalType": "string",
          "name": "nombre",
          "type": "string"
        },
        {
          "indexed": false,
          "internalType": "string",
          "name": "fabricante",
          "type": "string"
        },
        {
          "indexed": false,
          "internalType": "uint256",
          "name": "fechaFabricacion",
          "type": "uint256"
        },
        {
          "indexed": false,
          "internalType": "uint256",
          "name": "fechaCaducidad",
          "type": "uint256"
        },
        {
          "indexed": true,
          "internalType": "address",
          "name": "propietario",
          "type": "address"
        }
      ],
      "name": "RegistroLote",
      "type": "event"
    },
    {
      "anonymous": false,
      "inputs": [
        {
          "indexed": true,
          "internalType": "bytes32",
          "name": "loteId",
          "type": "bytes32"
        },
        {
          "indexed": true,
          "internalType": "address",
          "name": "propietarioAnterior",
          "type": "address"
        },
        {
          "indexed": true,
          "internalType": "address",
          "name": "nuevoPropietario",
          "type": "address"
        }
      ],
      "name": "TransferenciaLote",
      "type": "event"
    },
    {
      "inputs": [
        {
          "internalType": "bytes32",
          "name": "loteId",
          "type": "bytes32"
        }
      ],
      "name": "obtenerLote",
      "outputs": [
        {
          "internalType": "string",
          "name": "nombre",
          "type": "string"
        },
        {
          "internalType": "string",
          "name": "fabricante",
          "type": "string"
        },
        {
          "internalType": "uint256",
          "name": "fechaFabricacion",
          "type": "uint256"
        },
        {
          "internalType": "uint256",
          "name": "fechaCaducidad",
          "type": "uint256"
        },
        {
          "internalType": "address",
          "name": "propietario",
          "type": "address"
        },
        {
          "internalType": "bool",
          "name": "existe",
          "type": "bool"
        }
      ],
      "stateMutability": "view",
      "type": "function"
    },
    {
      "inputs": [
        {
          "internalType": "string",
          "name": "nombre",
          "type": "string"
        },
        {
          "internalType": "string",
          "name": "fabricante",
          "type": "string"
        },
        {
          "internalType": "uint256",
          "name": "fechaFabricacion",
          "type": "uint256"
        },
        {
          "internalType": "uint256",
          "name": "fechaCaducidad",
          "type": "uint256"
        },
        {
          "internalType": "string",
          "name": "serial",
          "type": "string"
        }
      ],
      "name": "registrarLote",
      "outputs": [
        {
          "internalType": "bytes32",
          "name": "",
          "type": "bytes32"
        }
      ],
      "stateMutability": "nonpayable",
      "type": "function"
    },
    {
      "inputs": [
        {
          "internalType": "bytes32",
          "name": "loteId",
          "type": "bytes32"
        },
        {
          "internalType": "address",
          "name": "nuevoPropietario",
          "type": "address"
        }
      ],
      "name": "transferirLote",
      "outputs": [],
      "stateMutability": "nonpayable",
      "type": "function"
    }
  ],
  "bytecode": "0x6080604052348015600e575f5ffd5b506111f48061001c5f395ff3fe608060405234801561000f575f5ffd5b506004361061003f575f3560e01c80637bdeec591461004357806397b9cf5014610073578063eb864c7d146100a8575b5f5ffd5b61005d6004803603810190610058919061086c565b6100c4565b60405161006a919061095b565b60405180910390f35b61008d6004803603810190610088919061099e565b610380565b60405161009f96959493929190610aa1565b60405180910390f35b6100c260048036038101906100bd9190610b38565b61057b565b005b5f848411610107576040517f08c379a00000000000000000000000000000000000000000000000000000000081526004016100fe90610be6565b60405180910390fd5b5f838360405160200161011b929190610c40565b6040516020818303038152906040528051906020012090505f5f8281526020019081526020015f2060040160149054906101000a900460ff1615610194576040517f08c379a000000000000000000000000000000000000000000000000000000000815260040161018b90610ca2565b60405180910390fd5b6040518060c001604052808b8b8080601f0160208091040260200160405190810160405280939291908181526020018383808284375f81840152601f19601f82011690508083019250505050505050815260200189898080601f0160208091040260200160405190810160405280939291908181526020018383808284375f81840152601f19601f8201169050808301925050505050505081526020018781526020018681526020013373ffffffffffffffffffffffffffffffffffffffff168152602001600115158152505f5f8381526020019081526020015f205f820151815f0190816102839190610eea565b5060208201518160010190816102999190610eea565b5060408201518160020155606082015181600301556080820151816004015f6101000a81548173ffffffffffffffffffffffffffffffffffffffff021916908373ffffffffffffffffffffffffffffffffffffffff16021790555060a08201518160040160146101000a81548160ff0219169083151502179055509050503373ffffffffffffffffffffffffffffffffffffffff16817ff5c9c2e80c603ff63400e594e1db3dd9a40a5167c232fd256cfb2380fa0a49718c8c8c8c8c8c60405161036896959493929190610fe5565b60405180910390a38091505098975050505050505050565b6060805f5f5f5f5f5f5f8981526020019081526020015f206040518060c00160405290815f820180546103b290610d1a565b80601f01602080910402602001604051908101604052809291908181526020018280546103de90610d1a565b80156104295780601f1061040057610100808354040283529160200191610429565b820191905f5260205f20905b81548152906001019060200180831161040c57829003601f168201915b5050505050815260200160018201805461044290610d1a565b80601f016020809104026020016040519081016040528092919081815260200182805461046e90610d1a565b80156104b95780601f10610490576101008083540402835291602001916104b9565b820191905f5260205f20905b81548152906001019060200180831161049c57829003601f168201915b505050505081526020016002820154815260200160038201548152602001600482015f9054906101000a900473ffffffffffffffffffffffffffffffffffffffff1673ffffffffffffffffffffffffffffffffffffffff1673ffffffffffffffffffffffffffffffffffffffff1681526020016004820160149054906101000a900460ff1615151515815250509050805f015181602001518260400151836060015184608001518560a001519650965096509650965096505091939550919395565b5f5f8381526020019081526020015f2060040160149054906101000a900460ff166105db576040517f08c379a00000000000000000000000000000000000000000000000000000000081526004016105d290611084565b60405180910390fd5b3373ffffffffffffffffffffffffffffffffffffffff165f5f8481526020019081526020015f206004015f9054906101000a900473ffffffffffffffffffffffffffffffffffffffff1673ffffffffffffffffffffffffffffffffffffffff161461067b576040517f08c379a000000000000000000000000000000000000000000000000000000000815260040161067290611112565b60405180910390fd5b5f73ffffffffffffffffffffffffffffffffffffffff168173ffffffffffffffffffffffffffffffffffffffff16036106e9576040517f08c379a00000000000000000000000000000000000000000000000000000000081526004016106e0906111a0565b60405180910390fd5b5f5f5f8481526020019081526020015f206004015f9054906101000a900473ffffffffffffffffffffffffffffffffffffffff169050815f5f8581526020019081526020015f206004015f6101000a81548173ffffffffffffffffffffffffffffffffffffffff021916908373ffffffffffffffffffffffffffffffffffffffff1602179055508173ffffffffffffffffffffffffffffffffffffffff168173ffffffffffffffffffffffffffffffffffffffff16847f556067b5ed81b48b83feca7555c46c2ebec8c3ca80a55fd95587bc5981ffd9d260405160405180910390a4505050565b5f5ffd5b5f5ffd5b5f5ffd5b5f5ffd5b5f5ffd5b5f5f83601f8401126107f9576107f86107d8565b5b8235905067ffffffffffffffff811115610816576108156107dc565b5b602083019150836001820283011115610832576108316107e0565b5b9250929050565b5f819050919050565b61084b81610839565b8114610855575f5ffd5b50565b5f8135905061086681610842565b92915050565b5f5f5f5f5f5f5f5f60a0898b031215610888576108876107d0565b5b5f89013567ffffffffffffffff8111156108a5576108a46107d4565b5b6108b18b828c016107e4565b9850985050602089013567ffffffffffffffff8111156108d4576108d36107d4565b5b6108e08b828c016107e4565b965096505060406108f38b828c01610858565b94505060606109048b828c01610858565b935050608089013567ffffffffffffffff811115610925576109246107d4565b5b6109318b828c016107e4565b92509250509295985092959890939650565b5f819050919050565b61095581610943565b82525050565b5f60208201905061096e5f83018461094c565b92915050565b61097d81610943565b8114610987575f5ffd5b50565b5f8135905061099881610974565b92915050565b5f602082840312156109b3576109b26107d0565b5b5f6109c08482850161098a565b91505092915050565b5f81519050919050565b5f82825260208201905092915050565b8281835e5f83830152505050565b5f601f19601f8301169050919050565b5f610a0b826109c9565b610a1581856109d3565b9350610a258185602086016109e3565b610a2e816109f1565b840191505092915050565b610a4281610839565b82525050565b5f73ffffffffffffffffffffffffffffffffffffffff82169050919050565b5f610a7182610a48565b9050919050565b610a8181610a67565b82525050565b5f8115159050919050565b610a9b81610a87565b82525050565b5f60c0820190508181035f830152610ab98189610a01565b90508181036020830152610acd8188610a01565b9050610adc6040830187610a39565b610ae96060830186610a39565b610af66080830185610a78565b610b0360a0830184610a92565b979650505050505050565b610b1781610a67565b8114610b21575f5ffd5b50565b5f81359050610b3281610b0e565b92915050565b5f5f60408385031215610b4e57610b4d6107d0565b5b5f610b5b8582860161098a565b9250506020610b6c85828601610b24565b9150509250929050565b7f4c612066656368612064652063616475636964616420646562652073657220705f8201527f6f73746572696f722061206c61206465206661627269636163696f6e00000000602082015250565b5f610bd0603c836109d3565b9150610bdb82610b76565b604082019050919050565b5f6020820190508181035f830152610bfd81610bc4565b9050919050565b5f81905092915050565b828183375f83830152505050565b5f610c278385610c04565b9350610c34838584610c0e565b82840190509392505050565b5f610c4c828486610c1c565b91508190509392505050565b7f456c206c6f746520636f6e2065737465204944207961206578697374650000005f82015250565b5f610c8c601d836109d3565b9150610c9782610c58565b602082019050919050565b5f6020820190508181035f830152610cb981610c80565b9050919050565b7f4e487b71000000000000000000000000000000000000000000000000000000005f52604160045260245ffd5b7f4e487b71000000000000000000000000000000000000000000000000000000005f52602260045260245ffd5b5f6002820490506001821680610d3157607f821691505b602082108103610d4457610d43610ced565b5b50919050565b5f819050815f5260205f209050919050565b5f6020601f8301049050919050565b5f82821b905092915050565b5f60088302610da67fffffffffffffffffffffffffffffffffffffffffffffffffffffffffffffffff82610d6b565b610db08683610d6b565b95508019841693508086168417925050509392505050565b5f819050919050565b5f610deb610de6610de184610839565b610dc8565b610839565b9050919050565b5f819050919050565b610e0483610dd1565b610e18610e1082610df2565b848454610d77565b825550505050565b5f5f905090565b610e2f610e20565b610e3a818484610dfb565b505050565b5b81811015610e5d57610e525f82610e27565b600181019050610e40565b5050565b601f821115610ea257610e7381610d4a565b610e7c84610d5c565b81016020851015610e8b578190505b610e9f610e9785610d5c565b830182610e3f565b50505b505050565b5f82821c905092915050565b5f610ec25f1984600802610ea7565b1980831691505092915050565b5f610eda8383610eb3565b9150826002028217905092915050565b610ef3826109c9565b67ffffffffffffffff811115610f0c57610f0b610cc0565b5b610f168254610d1a565b610f21828285610e61565b5f60209050601f831160018114610f52575f8415610f40578287015190505b610f4a8582610ecf565b865550610fb1565b601f198416610f6086610d4a565b5f5b82811015610f8757848901518255600182019150602085019450602081019050610f62565b86831015610fa45784890151610fa0601f891682610eb3565b8355505b6001600288020188555050505b505050505050565b5f610fc483856109d3565b9350610fd1838584610c0e565b610fda836109f1565b840190509392505050565b5f6080820190508181035f830152610ffe81888a610fb9565b90508181036020830152611013818688610fb9565b90506110226040830185610a39565b61102f6060830184610a39565b979650505050505050565b7f456c206c6f746520636f6e2065737465204944206e6f206578697374650000005f82015250565b5f61106e601d836109d3565b91506110798261103a565b602082019050919050565b5f6020820190508181035f83015261109b81611062565b9050919050565b7f536f6c6f20656c2070726f706965746172696f2061637475616c2070756564655f8201527f207472616e73666572697220656c206c6f746500000000000000000000000000602082015250565b5f6110fc6033836109d3565b9150611107826110a2565b604082019050919050565b5f6020820190508181035f830152611129816110f0565b9050919050565b7f456c206e7565766f2070726f706965746172696f206e6f2070756564652073655f8201527f72206c6120646972656363696f6e206365726f00000000000000000000000000602082015250565b5f61118a6033836109d3565b915061119582611130565b604082019050919050565b5f6020820190508181035f8301526111b78161117e565b905091905056fea26469706673582212201c78075156b6250ece644652a273244f138bbb41155d7c07d433d3791372f25e64736f6c634300081c0033",
  "linkReferences": {},
  "deployedLinkReferences": {},
  "immutableReferences": {},
  "inputSourceName": "project/contracts/MedicineRegistry.sol",
  "buildInfoId": "solc-0_8_28-e2213e27e1f14b24ed0ada34e87f4ca57c0a1c4f"
}